:020000040008F2
:10000000B0290020656708007F670800E35C0800EE
:10001000172A08000B4608001F5B080000000000BC
:100020000000000000000000000000006B5C080001
:10003000875F0800000000008B600800175D080063
:10004000BF610800DB610800F7610800AF650800C8
:10005000D36508008167080083670800856708008A
:10006000EF3F080087670800535D0800A35D0800A4
:10007000896708000D4008000F3408003934080073
:100080008B6708008D670800CF4908008F6708005C
:1000900091670800936708009567080021600800D1
:1000A0009767080099670800DF5E08009B670800F3
:1000B0009D6708009F6708007D67080081B000F514
:1000C000E0700268914203D343681A44914202D31C
:1000D00080680028F5D101B07047DFF86C17086818
:1000E00090B94FF4805048604FF480324FF0FF30A9
:1000F0008A60C86008610420DFF85027DFF85037B5
:100100004861C2F8BC010B600120704701F108038F
:1001100013F0070F0EBF0023C3F1080303F007031A
:100120001944D21A8161C26042F001034B60091D7B
:1001300028238B50DFF810170A69C26170472DE938
:10014000FC4B074601F1080010F0070F0FBF89466E
:10015000C0F1080000F0070001EB000902F10801FE
:1001600011F0070F06D002F10800C0F1080000F0FE
:10017000070002441546A5EB090009EB0306A0EBB6
:10018000030B43F00303C9F80430AE4228BF01F06B
:1001900001FA2879C10758BF01F0FCF9BBF1100F33
:1001A00038BF01F0F7F9B869854207D1F8685844BB
:1001B000F860BE6140F00100706050E178698542EE
:1001C0000AD1B8688344C7F808B07E614BF00100DB
:1001D000706046F80BB042E1686800F00301012945
:1001E00040F0AB80C008C0000190C0081F2839D87B
:1001F000AC68D5F80C800090454508BF01F0CAF9FD
:10020000A54208BF01F0C6F968680099C008C0009F
:10021000B0EBC10F18BF01F0BDF9009907F128003C
:1002200000EBC100844206D03A699442C0F080805D
:10023000E168A9427CD1A04506D100983968012225
:1002400082409143396075E0804506D03869804529
:100250006ED3D8F80800A8426AD1C4F80C80C8F858
:10026000084067E0EC68D5F81880AC420CD0A8686C
:100270003969884222D3C168A94204BFA168A94252
:100280001CD1C460A0601BE005F11402146834B9ED
:1002900005F1100214689CB101E01A46146804F1DB
:1002A00014031968002902BF04F11003186800281C
:1002B000F3D139698A4228BF106001D201F06AF98E
:1002C000B8F1000F36D0E96907F5987000EB8100AE
:1002D0000268954208D10460A4B9E86979680122EE
:1002E00082409143796025E03869804508D3D8F889
:1002F0001000A84214BFC8F81440C8F8104001E02C
:1003000001F048F9B4B139698C4211D3C4F81880AE
:10031000286928B1884226BF2061846101F03AF93A
:10032000686938B13969884202D36061846101E04B
:1003300001F030F901982D188344686840084000A6
:1003400068604BF0010171604FEADB0446F80BB0C6
:100350001F2C23D807F1280000EBC4084546BBF149
:10036000100F38BF01F016F9386820FA04F1C907F8
:1003700005D4012101FA04F404433C6007E0D8F8F5
:100380000800396988422CBF054601F003F9C8F816
:100390000860EE60B560C6F80C8060E05FEA1B2084
:1003A00008BF002123D0B0F5803F28BF1F211ED2F7
:1003B000A0F58072120C02F008029040A0F5805166
:1003C000090C01F004018840A0F580431B0CC2F128
:1003D0000E0203F00203521AD21A984002EBD032F6
:1003E000D01D2BFA00F101F0010101EB420107F5EC
:1003F000987202EB8100F1610022726132617A68C9
:1004000022FA01F3DB0707D4012303FA01F11143B8
:1004100079600660B0611DE002681F291DBF4908B0
:10042000C1F119010BFA01F1594600E0024650688A
:10043000C008C000584516D002F11003CC0F03EBE2
:100440008403490018680028F0D13869834204D336
:100450001E60B261F660B66001E001F09BF809F140
:100460000800BDE8F68B396990688A4228BF884247
:10047000F3D3C6609660B060F2600020B061EEE732
:100480002DE9FE4F04460F46A5692E469046994633
:100490003146FFF713FEA8F128020168406801EB1E
:1004A000000AAAF1270111F007000EBF0021C1F1D7
:1004B000080101F007010AEB0100A0F12F0B06F182
:1004C0001000834538BFB3460BF118000190394640
:1004D000002000902046FFF719FE0BF1080010F0F5
:1004E000070F18BF01F056F81B20CBF804000BF1E2
:1004F000080104F5E07090E80C5081E80C500760AA
:10050000C0F80480C0F80C9081600198009900E068
:10051000001D07224260491C00F108025245F7D332
:100520000129D8BF01F036F8B34500F09A80ABEB53
:10053000060B301D311D50F80B004008400041F8FB
:100540000B004BF0010171604FEADB0746F80BB07E
:100550001F2F22D804EBC70000F12805A846BBF1E5
:10056000100F38BF01F016F8206820FA07F1C9070C
:1005700005D4012101FA07F70743276006E0A868C0
:10058000216988422CBF804601F004F8AE60C8F8AB
:100590000C60C6F80880F56070E05FEA1B2008BFB9
:1005A000002123D0B0F5803F28BF1F211ED2A0F527
:1005B0008072120C02F008029040A0F58051090CE4
:1005C00001F004018840A0F580431B0CC2F10E022B
:1005D00003F00203521AD21A984002EBD032D01D17
:1005E0002BFA00F101F0010101EB420104EB810261
:1005F000002302F59870F16173613361626822FA39
:1006000001F3DB0707D4012303FA01F11143616011
:100610000660B0611DE002681F291DBF4908C1F1D5
:1006200019010BFA01F1594600E002465068C00872
:10063000C000584516D002F11003CF0F03EB87031B
:10064000490018680028F0D12069834204D31E6055
:10065000B261F660B56011E003B0BDE8F04F00F0A4
:1006600099BF0BE0216990688A4228BF8842F3D382
:10067000C6609560B060F2600020B06103B0BDE874
:10068000F08F2DE9F041704F05463868884608B96B
:10069000FFF723FDB96801EB08002F30491E20EA5F
:1006A000010188457BD205F5D876B06828B132685B
:1006B00089188A4273D2884271D300F0ABFF0100DF
:1006C0001CBF0C6811F1010F69D030682018306030
:1006D0007268824238BF02467260A86960BB2869AE
:1006E00008B1814200D22961316174610020F0615A
:1006F00005F12802386868624FF0FF302862002058
:10070000D260926002F1080353611361801C1032C1
:100710002028F5D34D48854208BFA4F1280228D0EF
:1007200055F8040CC00805EBC002A2F108000A1934
:10073000121A283A01461CE005F5E070024600E076
:1007400092687AB3136857683B449942F8D1137B97
:100750001F0727D4AB691768BB4223D3D2F804C064
:100760006744BB421ED2A444C2F804C0E868A96929
:1007700022182846FFF7CAFC1FE08068C0B1036852
:100780009342FAD1027B130712D4026801604368D6
:10079000E418446043462846BDE8F041CFE4002019
:1007A000BDE8F0812A69914238BF29610A19E5E75D
:1007B000002322462846FFF763FEE8688045EED214
:1007C000A0EB0800A969E86001EB0802AA6140F00B
:1007D0000100506048F00300486001F10800BDE8E6
:1007E000F08138B4184B1A6882B94FF480525A60BD
:1007F0004FF480344FF0FF329C60DA601A610422BB
:10080000124C134D5A61C4F8BC211D6011F1400F08
:1008100017D28269AAB1C368283199420BD200F578
:10082000E0710C68A24203D34D682C44A24202D36B
:1008300089680029F5D1C16999423CBF4FF0FF3169
:10084000C16132BC00207047C41700209010002006
:100850006859883C2DE9F84F00258946090AC9F1F5
:10086000000B08BF002323D0B1F5803F28BF1F2312
:100870001ED2A1F58072120C02F008029140A1F57F
:1008800080531B0C03F004039940A1F58044240C11
:10089000C2F10E0204F00204D21A121BA14002EBB4
:1008A000D132D11D29FA01F303F0010303EB420316
:1008B000074607F5987858F8230030B31F2B0FBF71
:1008C0004C465C08C4F1190409FA04F4AC465946D4
:1008D00000E064004268D208D200A2EB09028A421A
:1008E00003D21100054600F06881426910304FEADA
:1008F000D47B50F82B00002A1CBF8242944600286B
:10090000E7D18B466046B0BBBDBB012000FA03F3C4
:100910005B00584203437868034000F04D81584221
:1009200003405B1E180B00F01000C340590901F092
:100930000801CB409A0802F00402D3405C0804F09E
:1009400002040818E3401018C3F34006201830448E
:10095000F3401B1858F823000DE008464168C90809
:10096000C900A1EB090159453CBF8B460546016909
:100970000029F2D140690028F0D1002D00F01C813F
:10098000B868A0EB0900834580F01681386985427C
:10099000C0F010816868C008C00009EB0B018842F4
:1009A00018BF00F0F7FD05EB0906B54280F00281A3
:1009B000EC68D5F818A0AC420CD0A8683969884218
:1009C00022D3C168A94204BFA168A9421CD1C46056
:1009D000A0601BE005F11402146834B905F110029F
:1009E00014689CB101E01A46146804F114031968F4
:1009F000002902BF04F1100318680028F3D13969F7
:100A00008A4228BF106001D200F0C4FDBAF1000F85
:100A100036D0E96908EB81000268954209D104608B
:100A2000200014D1E86979680122824091437960FD
:100A300026E03869824508D3DAF81000A84214BFCE
:100A4000CAF81440CAF8104001E000F0A3FDBCB1A0
:100A50003869844212D3C4F818A0286930B13969C2
:100A6000884226BF2061846100F094FD686938B136
:100A70003969884202D36061846101E000F08AFD37
:100A8000BBF1100F0CD2D94449F003006860291D56
:100A9000281D50F8090040F0010041F8090088E0E5
:100AA00049F0030068604BF0010070604FEADB0022
:100AB00046F80BB01F281DD807EBC00101F1280430
:100AC000396821FA00F2D207A34605D4012202FABE
:100AD00000F00843386006E0A068396988422CBFFE
:100AE000834600F057FDA660CBF80C60C6F808B04E
:100AF000F4605EE05FEA1B2008BF002123D0B0F560
:100B0000803F28BF1F211ED2A0F58072120C02F078
:100B100008029040A0F58051090C01F004018840C2
:100B2000A0F580431B0CC2F10E0203F00203521A1F
:100B3000D21A984002EBD032D01D2BFA00F101F00E
:100B4000010101EB4201F16100227261326108EBA7
:100B500081007A6822FA01F3DB0707D4012303FA44
:100B600001F1114379600660B0611DE002681F2940
:100B70001DBF4908C1F119010BFA01F1594600E006
:100B800002465068C008C000584518D002F1100352
:100B9000CC0F03EB8403490018680028F0D13869B2
:100BA000834204D31E60B261F660B66001E000F0DB
:100BB000F1FC13E100F0EEFC0DE18B46A3E6396990
:100BC00090688A4228BF8842F1D3C6609660B060C0
:100BD000F2600020B061ECE72DE9F84F0646884648
:100BE000716848420140491E080B00F01000C140E6
:100BF0004A0902F00802D1408B0803F00403D940EF
:100C00004D0805F002051018E9401818C1F340041A
:100C1000281806F5987A2044E14009185AF821105E
:100C20004868C008C0000D46A0EB080909E001466D
:100C30004868C008C000A0EB080048453CBF81469A
:100C40000D4608690028F2D149690029F0D13069C0
:100C50008542C0F0BE806868C00808EB090BC00080
:100C6000584518BF00F096FC05EB0800854200903F
:100C700080F0AF80EF68AC69AF420CD0A8683169F2
:100C8000884222D3C168A94204BFB968A9421CD1D5
:100C9000C760B8601BE005F11402176837B905F1A9
:100CA000100217689FB101E01A46176807F1140394
:100CB0001968002902BF07F1100318680028F3D152
:100CC00031698A4228BF106001D200F063FC002C19
:100CD00031D0E9690AEB81000268954208D10760CA
:100CE0008FB9E8697168012282409143716022E006
:100CF0003069844205D32069A84214BF6761276127
:100D000001E000F047FCB7B13069874211D3BC6104
:100D1000286930B13169884226BF3861876100F0A7
:100D200039FC686938B13169884202D378618761DA
:100D300001E000F02FFCB9F1100F0BD24BF00300D3
:100D40006860291D281D50F80B0040F0010041F893
:100D50000B003DE048F00301696049F00100291DE6
:100D600041F80800009840F80990D6F808804FEA4A
:100D7000D80BBBF1200F28BF00F00CFCB8F1000F1E
:100D800022D006EBCB00776900F12804A246B8F127
:100D9000100F38BF00F0FEFB306820FA0BF1C907D6
:100DA00005D4012101FA0BF10843306006E0A06888
:100DB000316988422CBF824600F0ECFBA760CAF87C
:100DC0000C70C7F808A0FC60C6F808900098706125
:100DD00004E000F0DFFB0020BDE8F28F05F1080021
:100DE000BDE8F28F2DE9FE4F0546AFF30080F52DEB
:100DF000DFF89C6780F004810B2D31BF10250B3587
:100E0000ED08ED003068EC08E04010F0030F46D02C
:100E1000C04300F00100041906F1280000EBC408EB
:100E2000E700D8F808506868C008C000B84218BF8A
:100E300000F0B0FBD5F80890454508BF00F0AAFBCC
:100E40004D4508BF00F0A6FB6868C008C000B84266
:100E500018BF00F09FFBC84507D13168012000FA98
:100E600004F421EA040434600DE03069814508D3BC
:100E7000D9F80C00A84204D1C8F80890C9F80C8031
:100E800001E000F087FB47F003006860291D281D82
:100E900005F10804C05940F00100C851F8E0B168FC
:100EA000A94280F0BE80002800F0A1804FF0010828
:100EB00008FA04F1490000FA04F4484201430C40E6
:100EC00060420440641E200B00F01000C440610921
:100ED00001F00801CC40A20802F00402D4406308EB
:100EE00003F002030818DC401018C4F34007181878
:100EF0003818FC40241806F1280000EBC40AE7006B
:100F0000DAF80890D9F80400C008C000B84218BF49
:100F100000F040FBD9F808B0D14508BF00F03AFB1B
:100F2000D94508BF00F036FBD9F80400C008C0005E
:100F3000B84218BF00F02EFBDA4506D1316808FA36
:100F400004F421EA040434600DE03069834508D3D9
:100F5000DBF80C00484504D1CAF808B0CBF80CA067
:100F600001E000F017FB45F00300C9F804007F1B07
:100F700009F1040147F00100485109EB0500019017
:100F8000C751B4684FEAD40ABAF1200F28BF00F065
:100F900001FB34B3CDF800A006F12800756900EB21
:100FA000CA0AD346102C38BF00F0F4FA3168009812
:100FB00021FA00F2D30704D408FA00F008433060A5
:100FC00007E0DAF80800316988422CBF834600F058
:100FD000E1FACAF80850CBF80C50C5F808B0C5F8CB
:100FE0000CA0B76009F108040198706150E07068C6
:100FF000C0B329463046FFF7EFFD040011D047E0AB
:1010000015F1400F28BF4FF0FF350AD20B35ED0820
:101010007068ED0028B129463046FFF71BFC04003C
:1010200036D1B068A8421DD3411B726910290AD37A
:1010300050197061B16041F001034360415045F0C7
:10104000030555600BE00021B1607161131D40F094
:1010500003015160111D095841F00101195002F1BD
:10106000080415E0F06885420DD2401BB169F060BC
:101070004A19B26140F00100506045F003054D602F
:1010800001F1080404E029463046FFF7FAFA044665
:10109000AFF300802046FFF7F1BA002800D1704777
:1010A0002DE9FC47A0F10805AFF30080DFF8E0640C
:1010B00032699542C0F05982686800F00301012945
:1010C00000F05382C1084FEAC109C10705EB0908C6
:1010D00039D42C6810F0030F00F0498260420544B7
:1010E0009542A144C0F041827069854200F0C780FA
:1010F000E408202C5ED2D5F80CA0AF68554508BF97
:1011000000F048FABD4208BF00F044FA6868C00821
:10111000C000B0EBC40F18BF00F03CFA06F1280085
:1011200000EBC400874205D031698F423FD3F96894
:10113000A9423CD1BA452CD13068012101FA04F40E
:1011400020EA04043460454580F00F82D8F804405A
:10115000E00740F10A82A00700F16881B06980458C
:1011600040F0A080F068B5618144C6F80C9049F069
:10117000010068607069854202D100207061B06032
:10118000F069484580F0F38100213046FFF729FBE4
:10119000EDE1824506D03069824508D3DAF80800CF
:1011A000A84204D1C7F80CA0CAF80870CBE700F039
:1011B000F1F9C8E7EC68AF69AC420BD0A86890427F
:1011C00023D3C168A94204BFA168A9421DD1C4604C
:1011D000A0601CE005F114031C6834B905F110038C
:1011E0001C68A4B101E063461C6804F1140CDCF82F
:1011F0000010002902BF04F1100CDCF800000028E8
:10120000F1D1934228BF196001D200F0C3F9002F39
:1012100099D0E96906F5987000EB81000268954263
:1012200009D10460200011D1E8697168012282406F
:101230009143716087E73069874205D33869A842D6
:1012400014BF7C613C6101E000F0A4F9002C3FF484
:101250007AAF31698C42AAD3A761286928B1884244
:1012600026BF2061846100F095F9686900283FF489
:101270006AAF316988429AD36061846163E798F804
:10128000040000F0030003287FF45DAFC6F8089067
:1012900049F00101D8F8040040084000C8F80400F3
:1012A00069600AE0706980450AD1B068756181445F
:1012B000C6F8089049F00100686045F8099056E1C9
:1012C000E408E400A144E408202C3AD2D8F80CA0A9
:1012D000D8F80870D04508BF00F05CF9B84508BFE1
:1012E00000F058F9D8F80400C008C000B0EBC40FF3
:1012F00018BF00F04FF906F1280000EBC400874248
:1013000007D031698F42C0F08480F968414540F0D0
:101310008080BA4507D13068012101FA04F420EA3F
:101320000404346077E0824506D031698A4570D381
:10133000DAF8080040456CD1C7F80CA0CAF808706C
:1013400069E0D8F80C40D8F8187044450DD0D8F8AA
:1013500008003169884222D3C168414504BFA168B1
:1013600041451CD1C460A0601BE008F11402146860
:1013700034B908F1100214689CB101E01A461468EF
:1013800004F114031968002902BF04F1100318685E
:101390000028F3D131698A4228BF106001D200F0E1
:1013A000F9F8002F37D0D8F81C1006F5987000EB2C
:1013B0008100026890450AD10460200012D1D8F85B
:1013C0001C007168012282409143716023E0306902
:1013D000874205D33869404514BF7C613C6101E018
:1013E00000F0D8F8BCB131698C4212D3A761D8F8AB
:1013F000100028B1884226BF2061846100F0CAF83D
:10140000D8F8140038B13169884202D36061846130
:1014100001E000F0BFF849F00100686045F809906C
:10142000706985420BD1C6F80890A0E0640864009A
:10143000C8F8044049F00100686045F809904FEA97
:10144000D907202F22D206F1280000EBC704A046BE
:10145000B9F1100F38BF00F09DF8306820FA07F19D
:10146000C90705D4012101FA07F70743376006E0F1
:10147000A068316988422CBF804600F08BF8A560D7
:10148000C8F80C50C5F80880EC6070E05FEA1920DD
:1014900008BF002123D0B0F5803F28BF1F211ED2F6
:1014A000A0F58072120C02F008029040A0F5805165
:1014B000090C01F004018840A0F580431B0CC2F127
:1014C0000E0203F00203521AD21A984002EBD032F5
:1014D000D01D29FA00F101F0010101EB420106F5EE
:1014E000987202EB810000226A612A61E9617268E8
:1014F00022FA01F3DB0707D4012303FA01F11143B8
:1015000071600560A8611DE002681F291DBF4908C0
:10151000C1F1190109FA01F1494600E0024650689B
:10152000C008C000484526D002F11003CC0F03EBE1
:101530008403490018680028F0D13069834204D33D
:101540001D60AA61ED60AD6001E000F023F8306A33
:10155000401E30620BD1D6F8C80100E08068002838
:10156000FCD14FF0FF30306201E000F013F8AFF330
:101570000080BDE8F387316990688A4228BF8842BD
:10158000E3D3C5609560A860EA600020A861DEE74B
:1015900090100020012000F053B8F0B4024610680B
:1015A00095681318506803EB5004C00721D54D44CB
:1015B0001FE0F0BC02F10C00704713F8017B05F846
:1015C000017B491EF9D1A0B1B60813F8011B06F042
:1015D0000306032E08BF13F8016B01EB06214942F5
:1015E000801C294405D011F8016B05F8016B401EE1
:1015F000F9D1A342DDD013F8016B16F0030104BF4B
:1016000013F8011BC91C30090F28DAD113F8010B9C
:101610000F30D6E70749086808B100207047064830
:10162000C008C00008600549C908C900091A01605E
:10163000704700BF941900200700082000400820D0
:1016400080B5AFF30080024A11001820ABBEFBE763
:10165000260002001CB50024DFF8D40ADFF8D41AF3
:101660000860DFF8CC0ADFF8D01A0860DFF8C00A9B
:10167000DFF8C81A08600020DFF8C41A0870DFF825
:10168000C40A006800905FF40010DFF8BC1A08601C
:101690005FF40000DFF8B41A08605FF08070DFF8D4
:1016A000AC1A08606421684601F038F90028F9D0C6
:1016B0005FF40010DFF8941A0860DFF8880A006809
:1016C00000904FF47A71684601F028F90028F8D0AC
:1016D000DFF8700A00680090DFF8740A0068C0073D
:1016E00009D4E4B2002C06D14FF47A71684601F0B7
:1016F00015F90400F0E7E4B2002C13D100F028F84B
:1017000000F03CFDDFF84C0A00F07DFCDFF8441AE5
:101710000871DFF8400A00F029FB4FF47A713E208F
:1017200000F0DDFB13BD0020C82801D2401CFBE700
:101730005FF08070DFF8101A08600020142801D2D2
:10174000401CFBE75FF08070DFF8001A086070470C
:10175000F0B58BB006A8DFF8001A112201F020F9CD
:101760006846DFF8F819182201F02AF90025DFF899
:10177000E0090068C00740F10B81DFF8E409076861
:101780000020DFF8E0190860DFF8DC090068C0001D
:1017900009D5DFF8D409006830F08050DFF8C819A7
:1017A00008607F1E15E0FFF7BEFFDFF8A4090068A0
:1017B00040070ED4DFF8AC09006842F2107188428D
:1017C00007D2DFF8A0090068401CDFF8981908600C
:1017D000EBE7DFF89009006842F21171884205D307
:1017E00000F0D8F806A801F017F9D1E0DFF8600999
:1017F000006830F00400DFF858190860DFF8380995
:1018000000680078A42840F08780DFF85C09006851
:1018100050F08060DFF850190860FFF784FFDFF8B0
:1018200030090068C0070ED5DFF83809006842F2B9
:101830001071884207D2DFF82C090068401CDFF8DD
:1018400024190860EBE7DFF82009006830F08060B9
:10185000DFF814190860DFF8F808006830F00400B9
:10186000DFF8EC180860DFF8FC08006842F210713D
:10187000884247D2DFF8E8080068C71BDFF8B808DD
:1018800000680078060000F09BF8DFF8AC080068FC
:101890000078801C0400E4B2A01C874207D0DFF867
:1018A000C808006850F00100DFF8BC180860DFF8D5
:1018B000880800680078464000F082F8641EE4B2B0
:1018C000002CF4D13000DFF8701809680978C0B234
:1018D00088420ED1DFF868080078401CDFF86018F5
:1018E0000870DFF888080068401CDFF8801808607E
:1018F0001BE0DFF844080068DFF84018086000F0DB
:1019000073F812E0DFF868080068401CDFF8601820
:1019100008600120050008E0DFF858080068401C56
:10192000DFF85018086001200500EDB2002D2DD021
:10193000684601F071F8DFF818080068C00710D594
:10194000DFF82008006842F21071884209D2DFF8FF
:1019500014080068401CDFF80C180860FFF7E3FE6D
:10196000E9E7DFF8D0070068DFF8CC170860DFF898
:10197000C4070068DFF8C4170860DFF8D407006800
:1019800030F00600DFF8C817086001E000F018F832
:101990000BB0F0BD72B6DFF89807DFF89817086053
:1019A000DFF88C07DFF890170860DFF88407DFF8AE
:1019B0008C1708600020DFF88817087062B670473F
:1019C000DFF874070068401CDFF86C170860DFF868
:1019D00068070068DFF8A017884204D1DFF85007D5
:1019E000DFF8541708607047DFF850070068401CA4
:1019F000DFF848170860DFF844070068DFF8781759
:101A0000884204D1DFF82807DFF8301708607047F4
:101A10002DE9FE4F04000D0000265FF0000B4FF68D
:101A2000FF70ADF80200FF274FF0FF085FF0FF39AD
:101A30004FF6FF70ADF8040094F800A0A0788DF880
:101A400000005FFA8AFABAF1090F01D1002057E0CD
:101A50005FFA8AFABAF1120F04DA5FFA8AFABAF177
:101A6000090F05DADFF8A40C00F0D6FF002047E0EC
:101A7000E07A06000120310621D55FFA8BFB04EBEA
:101A80000B01097B1BF1010B5FFA8BFB04EB0B02D3
:101A9000127B51EA0221ADF802101BF1010B5FFA33
:101AA0008BFB04EB0B01097B0F001BF1010B5FFAB1
:101AB0008BFB04EB0B01097B88461BF1010B7106C4
:101AC0000CD51BF1010B5FFA8BFB04EB0B0191F9B9
:101AD0000C1089461BF1010B1BF1010BB1060FD550
:101AE0005FFA8BFB04EB0B01097B1BF1010B5FFA27
:101AF0008BFB04EB0B02127B51EA0221ADF80410C0
:101B00006E709DF800102970BDF8021069802F7169
:101B100085F8058085F80690C0B2BDE8FE8F38B51F
:101B2000DFF8E00A0068C00109D5DFF8DC0A00F040
:101B300073FFDFF8B00BDFF8901C08600FE15FF473
:101B40000010DFF8C81A0860DFF8C40A00F064FF6C
:101B50000020DFF8C01A08600020DFF8BC1A086017
:101B60000020C0B208287CDADFF83C1CC0B2142286
:101B700002FB00F28854FF21DFF82C2CC0B21423A2
:101B800003FB00F31A445170FF21DFF81C2CC0B294
:101B9000142303FB00F31A449170FF21DFF8082C93
:101BA000C0B2142303FB00F31A44D172FF21DFF803
:101BB000F82BC0B2142303FB00F31A441173FF2166
:101BC000DFF8E42BC0B2142303FB00F31A44517373
:101BD000FF21DFF8D42BC0B2142303FB00F31A4417
:101BE0009173FF21DFF8C02BC0B2142303FB00F375
:101BF0001A44D173FF21DFF8B02BC0B2142303FBCA
:101C000000F31A441174FF21DFF89C2BC0B2142397
:101C100003FB00F31A445174FF21DFF88C2BC0B290
:101C2000142303FB00F31A4491740021DFF8782B8E
:101C3000C0B2142303FB00F31A44D1740021C9B2CB
:101C400008290CDADFF8602BC0B2142303FB00F381
:101C50001A44C9B20A440023D370491CEFE7401C60
:101C60007FE70420DFF8A81A0870DFF8A80ADFF879
:101C7000A01A48605FF48000DFF8941A88600120A1
:101C8000DFF88C1A08730320DFF8841A48730FF208
:101C90002930DFF87C1A08610FF23530DFF8701A4E
:101CA0004861DFF88C04DFF8681A8861DFF8840483
:101CB000DFF85C1AC8614FF48070DFF8541A0884AA
:101CC000DFF84C0A01F054FADFF8001B086000202E
:101CD000DFF87C140860FFF7BDFCDFF8940B007898
:101CE000C0061BD5DFF88C0B00F096FEDFF8BC0AAF
:101CF00000F092FEDFF8800B00F08EFE00F09EFEFA
:101D0000DFF86404006830F48030DFF85C140860A9
:101D1000DFF8BC0ADFF8B01A086020E0DFF8B40A88
:101D200000F07AFE5FF0307004005FF0F0700500A4
:101D3000DFF8A40A0460DFF8A40A0460DFF8A00A50
:101D40000560DFF8D0090560DFF8980A0460DFF865
:101D5000980A0560DFF88C09DFF86C1A086031BD5D
:101D600080B5DFF8640A0068804701BDF0B599B01E
:101D70000400DFF8780A056810A8DFF8741A212239
:101D800000F00EFE0AA8DFF86C1A152200F008FE1B
:101D900005A8DFF8E81A122200F002FE6846DFF814
:101DA000E01A112200F0FCFDDFF8BC03006810F01F
:101DB000406F04D010A800F02FFE00208DE000201E
:101DC000DFF8A01308605FF40000DFF87C13086000
:101DD000DFF87C030068C0070ED4DFF888030068D2
:101DE00042F21071884207D2DFF878030068401C85
:101DF000DFF870130860EBE7DFF86803006842F271
:101E00001171884209D35FF40000DFF840130860C5
:101E10000AA800F001FE00205FE0FFF784FCDFF875
:101E20003003006840070CD4DFF83803006842F242
:101E30001071884205D2CB480068401CC94908602F
:101E4000EDE75FF40000C1490860C648006842F24F
:101E50001171884204D30AA800F0DEFD00203CE0A6
:101E6000B54800680678F6B2A42E07D1BE480068CF
:101E700050F08050BC49086000202EE0FFF7A0FD24
:101E8000FFF7B2FDB248006830F00400B0490860C6
:101E9000F6B2A52E1DD1B448006850F00060B249DA
:101EA00008602778FF1C22003900DFF8200900684D
:101EB00001F0F5F9DFF8CC190860DFF8C80900680F
:101EC000002801D0012008E005A800F0A5FD0020B1
:101ED00003E0684600F0A0FD002019B0F0BDF8B5A1
:101EE00088B005000E0000240127DFF80009006813
:101EF000009001A8DFF890191A2200F051FD9148D6
:101F00000068009092480068C00709D5E4B2002C30
:101F100006D14FF47A71684600F000FD0400F1E745
:101F2000E4B2002C1CD19048006830F000608E496B
:101F3000086000F0D9FB0020DFF8481908608148EC
:101F40000068009082480068C00709D4E4B2002C01
:101F500006D14FF47A71684600F0E0FC0400F1E726
:101F6000E4B2002C1BD1FFF7F3FB75480078002882
:101F700015D0DFF818090068807840280FD1DFF805
:101F80000C09006800792900C9B2884207D1DFF83E
:101F9000FC0800684079002801D10020070000F00B
:101FA000EDF8E4B2002C02D001A800F035FD3800B5
:101FB000C0B209B0F0BD000080B5DFF8D4080068F9
:101FC000401CDFF8CC180860FFF7ADFB01BD000036
:101FD00080B563480068401C614908605548006846
:101FE000401C54490860534800686349884202D144
:101FF0004F4850490860DFF89C080068400101D54F
:10200000FFF791FB01BD30B4020013789B1CA520A3
:10201000002421001D00C9B2EDB2A94204D21178FA
:102020004840521C641CF4E7C0B230BC70472DE934
:10203000F0418AB0060000276846DFF85C182822C5
:1020400000F0BEFCDFF854080068401CDFF84C18B4
:1020500008601C20FEF7C6FE0400002C04D1684670
:1020600000F0DAFC002043E096F8008018F1030845
:10207000002001004246C9B2D2B2914207D2C0B29A
:10208000315CC0B204EB00021171401CF1E72D4835
:10209000006820600020A061DFF87C05006800284F
:1020A0000AD1DFF874050460DFF8F4070068401C0B
:1020B000DFF8EC1708601AE0DFF85C05006805003F
:1020C000A869002802D0AD697F1CF9E7FFB2202F74
:1020D00008D2AC61DFF8C8070068401CDFF8C01701
:1020E000086004E0684600F097FC002000E0012052
:1020F0000AB0BDE8F08110B5DFF8180500680028C7
:1021000014D0DFF8100500680400DFF80805006847
:102110008069DFF800150860200001F0A3FCDFF8FB
:1021200084070068401EDFF87C17086010BD0000BF
:102130006812002070180020741800207818002001
:102140009D190020D4180020340E0E40300E0E4091
:102150002019002058010020A06608002866080009
:102160005C18002050180020401800208C18002017
:1021700060180020641800206813002030B587B074
:10218000DFF824070078002801D1012001E2DFF800
:102190001C070068401CDFF814170860DFF8080708
:1021A0000078401EDFF800170870FFF71DFCDFF80D
:1021B000DC0600680478E4B2122C01DB0120E8E1BF
:1021C0000025EDB2E4B2E01C85420ADADFF8BC0675
:1021D000006800786946EDB24855FFF705FC6D1CB4
:1021E000EFE79DF802509DF801003E2800F0AE8117
:1021F00040280CD04E2800F091814F2800F08E81AD
:10220000522800F0A2816F2800F0B581BAE19DF854
:102210000300012800F0F580DFF8940605709DF8B2
:102220000300DFF88C1648709DF80400DFF8801674
:1022300088709DF8030041286AD042285DD04B2861
:1022400008D04C2838D05B2840F09580DFF8640631
:1022500000F0E2FB15F13000DFF85C160873DFF8E0
:10226000580600F0D9FB9DF80400002823D1DFF8C0
:102270003805EDB2142101FB05F10844C07C50F093
:102280000400DFF82415EDB2142202FB05F211441C
:10229000C874DFF81405EDB2142101FB05F1084400
:1022A000C07C10F0FD00DFF80015EDB2142202FB37
:1022B00005F21144C8748EE09DF802003030DFF85A
:1022C000FC150873DFF8F40500F0A6FB9DF8040088
:1022D000002811D1DFF8D004EDB2142101FB05F183
:1022E0000844C07C10F0F300DFF8BC14EDB21422F7
:1022F00002FB05F21144C8746DE09DF80200303015
:10230000DFF8BC150873DFF8B80500F085FB62E064
:102310009DF802003030DFF8AC150873DFF8A40533
:1023200000F07AFB9DF80400002823D1DFF8780440
:10233000EDB2142101FB05F10844C07C50F0080007
:10234000DFF86414EDB2142202FB05F21144C874E4
:10235000DFF85404EDB2142101FB05F10844C07C00
:1023600010F0FB00DFF84014EDB2142202FB05F27E
:102370001144C8742FE09DF802003030DFF8481592
:1023800008739DF80300C0B2000900F0F3FADFF80B
:10239000381508769DF8030010F00F0000F0EAFAF7
:1023A000DFF8241548769DF80400C0B2000900F05B
:1023B000E1FADFF8141581F824009DF8040010F00C
:1023C0000F0000F0D7FADFF8001581F82500DFF8DC
:1023D000F80400F021FB9DF80400002804D1DFF888
:1023E000940400F019FB98E0DFF8E00400F014FB1F
:1023F000DFF8A004006850F00200DFF898140860CD
:102400008BE09DF8040000280ED001285CD0022843
:102410000ED0032833D005283ED0062850D00728F8
:1024200056D0082827D068E0002000F0B4F874E007
:10243000DFF89C040078401CDFF894140870DFF883
:1024400090040078002812D1DFF888040078401C3E
:10245000DFF880140870DFF87C040078002806D1CB
:10246000DFF874040078401CDFF86C1408706846CC
:1024700000F091F851E0684600F08DF84DE0CA4850
:10248000EDB2142101FB05F108444078102802D177
:10249000684600F080F840E0C348EDB2142101FB2B
:1024A00005F10844C07C50F01000BF49EDB2142281
:1024B00002FB05F21144C874684600F06CF82CE089
:1024C000684600F068F828E0684600F064F824E008
:1024D000DFF8080400F0A0FAB348EDB2142101FBC4
:1024E00005F10844C07C10F0F300AF49EDB21422AE
:1024F00002FB05F21144C8740FE09DF8040000F0DF
:10250000ABFADFF8DC0300F087FADFF88803006835
:1025100050F00400DFF87C13086039E005A9684634
:10252000FFF776FA05AA0DF10301012000F076F815
:102530009D48EDB2142101FB05F1084440780028C4
:1025400002D1002000F027F822E021E00020C0B2F4
:102550000A2809DA6946C0B201448978DFF81823ED
:10256000C0B21154401CF2E7C148006850F010009E
:10257000BF4908600CE0C748006850F48030C54986
:10258000086005E0C348006850F00800C1490860D1
:10259000002007B030BD1FB50400FF208DF80000FB
:1025A000A0788DF80100E0788DF8020020798DF890
:1025B0000300FF208DF80400C74800788DF805005F
:1025C000C44800788DF80600C14800788DF80700EF
:1025D0009DF801008DF80800FF20ADF80A00FF20EB
:1025E0008DF80C00FF208DF80D005FF0FF308DF8A6
:1025F0000E00FF208DF8090002AA6946022000F0B3
:102600000DF81FBDEC180020D0000020100E0E4069
:102610009800002048180020801800202DE9F04381
:102620008BB005000E0017005FF000096846AD4949
:102630002B2200F0B5F91C20FEF7D4FB0400002C7F
:1026400004D1684600F0E8F9002048E00020C0B25C
:10265000082807DAC0B2315CC0B204EB0002917105
:10266000401CF4E7A0480068206025713878A0730A
:10267000788820823879A0747879E0747878E0736B
:10268000B87920750020A06198480068002807D11B
:102690009648046083480068401C824908601DE039
:1026A000924800688046D8F81800002804D0D8F86E
:1026B000188019F10109F6E75FFA89F9B9F1200FDD
:1026C00007D2C8F8184077480068401C7549086070
:1026D00004E0684600F0A0F9002000E001200BB003
:1026E000BDE8F0831929080010B58148006800286A
:1026F0000AD07F48006804007D48006880697C49F2
:102700000860200001F0AEF910BD000084630800ED
:10271000F0160020000E0E4070B5012400255D4823
:10272000006800041CD0734800F076F90026F6B269
:10273000042E0FDA57480068204207D06E48EDB2E9
:10274000142101FB05F1084400F066F964006D1CDA
:10275000761CECE74F480068000C00044D49086007
:10276000FFF70CFD65480068C00704D50FF2410073
:102770001549086016E043480068002812D15C48FB
:10278000006800280ED05A480068001DFFF7EEFAD6
:10279000002807D054480068594908600FF25900D2
:1027A0000949086070BD0000681400200467080033
:1027B00080B554480068401C52490860FEF7C8FFC5
:1027C00003480149086001BD4C1800206C18002026
:1027D00019270800B0000020040C0E40000C0E4029
:1027E000040E0E40140C0E40140E0E40D81800209B
:1027F000A86308004066080010B52248006801F090
:1028000033F90400E4B22000001F01282ED8FFF79E
:102810006BFF00201B4908601E48006830F0006014
:102820001C49086035480068C0070BD5344800686B
:1028300042F21071884205D231480068401C30498C
:102840000860EFE73048006842F21171884209D30E
:102850002E4800F0E1F829480068C00702D5FEF7CD
:1028600062FFF8E72A482B490860FFE710BD000027
:10287000F01800200400002020180020B466080092
:10288000C866080068180020F06508007818002065
:1028900058180020401800203463080094180020C5
:1028A000841800207C1800209D190020901800201A
:1028B0004418002034670800840000206C000020C9
:1028C000140000202C000020440000200C000020F8
:1028D000A01900209F1900209E190020DC66080026
:1028E0003065080008630800D4180020481800204C
:1028F00080180020600100207001002020190020B5
:10290000541800208818002050180020C001002012
:10291000192708004C18002070470A0D02001F48B4
:1029200000681368984204D31C4800681368C31AEF
:1029300006E05FF0FF301368C31A18480068C31838
:102940008B4201D2002000E0012070470100FF20EF
:10295000C9B20A2903DA11F13002100008E0C9B245
:102960000A2905DBC9B2102902DA11F13702100079
:10297000C0B270470100FF20C9B20A2903DA11F181
:102980003002100008E0C9B20A2905DBC9B21029DB
:1029900002DA11F157021000C0B27047D4180020BB
:1029A00062B38B0708D0521E11F8013B00F8013BBF
:1029B00000F024808B07F6D1830740F0208000BF11
:1029C000103A07D330B4B1E83810103AA0E8381004
:1029D000F9D230BC530724BFB1E80810A0E80810B2
:1029E00044BF51F8043B40F8043BD20724BF31F800
:1029F000022B20F8022B44BF0B7803707047083A73
:102A000007D3B1E80810083A40F8043B40F804CB7B
:102A1000F7D25307E4E7FEE770B50400250000266F
:102A20002878002802D0761C6D1CF9E722003100BE
:102A3000DFF87C06006801F021FA70BD80B5DFF890
:102A400074060088ADF800006A460221DFF86006CF
:102A5000006801F013FA01BD2DE9FE4306000024D1
:102A60000027DFF854860020C0B20A2819DAB6FB26
:102A7000F8F130316A46C0B211546946C0B2095CFF
:102A8000302901D001210C00E4B2002C00D07F1CC1
:102A9000B6FBF8F108FB11660A21B8FBF1F8401CFF
:102AA000E2E7E4B2002C01D101200700FFB23800B8
:102AB000FEF798F90500002D08D10220DFF8FC157B
:102AC00008700FF2B950DFF8F81508605FF00909D7
:102AD0003800C0B200280BD0694611F80910C0B206
:102AE00005EB000202F8011CB9F10109401EF0E7F4
:102AF0002A00FFB23900DFF8B805006801F0BEF91E
:102B0000280000F0AFFFBDE8F78378B5ABB06846AA
:102B1000DFF8BC151122FFF743FF19A8DFF8B41541
:102B20004822FFF74DFF0125012405A8DFF8A8156D
:102B30005022FFF745FF19A8FFF76EFF0026F6B2F7
:102B4000082E13DADFF89405006805420BD1002047
:102B5000040005A8F6B20A2101FB06F10844FFF7BC
:102B60005BFFFFF76BFF6D00761CE8E7E4B2002C1B
:102B700002D06846FFF750FFFFF760FF2CB070BD32
:102B8000F8B5002080B2802806D20021DFF8502559
:102B900080B21154401CF5E70020DFF828150870BA
:102BA0000020C0B2802806DA0021DFF81C25C0B260
:102BB0001154401CF5E7DFF82805DFF828150860F8
:102BC000DFF81C05DFF820150860DFF82005DFF8C6
:102BD0002015086002208DF80000DFF80405019040
:102BE000DFF8040502908020ADF802000FF25900D2
:102BF0000390684601F0A0F8DFF8B4140860DFF82D
:102C0000B0040068002805D10FF27140DFF8B0145D
:102C1000086010E0DFF8DC04FFF7FEFEDFF8BC041C
:102C2000006850F00400DFF8B41408600FF22D20A3
:102C3000DFF88C14086005B000BD80B5DFF88004B3
:102C40000068804701BD0000DFF89C040068401C5C
:102C5000DFF894140860DFF890040068DFF8981437
:102C6000884204D1DFF87804DFF87C1408607047EC
:102C700018B591B00AA8DFF884141922FFF790FE66
:102C80003A208DF8020020208DF803000A208DF8EC
:102C900024000D208DF8250000208DF826000AA8BC
:102CA000FFF7BAFE0024E4B2082C2CDAE4B20A2CB6
:102CB00007DBE4B20A2094FBF0F030308DF800001E
:102CC00002E030208DF80000E4B20A2094FBF0F11D
:102CD00000FB114030308DF801000020C0B22028E8
:102CE0000CDADFF81C14E4B251F83410C0B2095CFD
:102CF0006A46C0B202441171401CEFE76846FFF714
:102D00008BFE641CCFE7FFF799FE12B010BD1FB514
:102D10006846DFF8F01391E81C0080E81C00684664
:102D2000FFF77AFE1FBD1FB56846DFF8DC1391E898
:102D30001C0080E81C006846FFF76EFEDFF88C037D
:102D40000078C0070CD5DFF8840300684008400015
:102D5000DFF878130860DFF8B403FFF75DFE23E0C7
:102D6000DFF86803006850F00100DFF860130860C6
:102D7000DFF89C03FFF750FE002001F075FA0120F8
:102D800001F072FA022001F06FFA032001F06CFAF0
:102D9000042001F069FA052001F066FA062001F02E
:102DA00063FA072001F060FA1FBD10B50400E4B219
:102DB000572C02D1002001F0B7FAE4B2502C02D116
:102DC000012001F0B1FAE4B2422C02D1022001F05C
:102DD000ABFAE4B2432C02D1032001F0A5FAE4B22D
:102DE000472C02D1042001F09FFAE4B2592C02D101
:102DF000052001F099FAE4B24F2C02D1062001F02F
:102E000093FAE4B2522C02D1072001F08DFA10BDE2
:102E100000B589B06846DFF8FC122322FFF7C0FD39
:102E20006846FFF7F9FDA948007880070AD5A7484A
:102E3000006830F00200A5490860DFF8D002FFF713
:102E4000EBFD08E0A148006850F002009F490860CF
:102E5000AF48FFF7E1FD09B000BD000038B5002420
:102E6000A0480068A0490968884200F09A80E4B24E
:102E7000002C40F096809B48006800780500EDB279
:102E80002800082802D00D2833D03CE08F48007875
:102E900040070DD58B480078802826DA8A48894972
:102EA0000978455487480078401C864908701CE022
:102EB00084480078002809D082480078401E814963
:102EC0000870002080497F4A12788854884800683A
:102ED0008649884209D086480068401E84490860B7
:102EE0008D480088401E8C4908808C48FFF794FD6F
:102EF00040E076480078400705D4012004000FF236
:102F0000B5006F4908606F480078802808DA6E487D
:102F10006C49097845546B480078401C6949087031
:102F20002900C9B26248006800F091FF6748007844
:102F300040071FD46E48006805706D480068401C4B
:102F40006B49086074480088401C734908806848D1
:102F50000068734988420DD3EDB20D2D0AD0634845
:102F60006349086000206C4908806E48FFF754FDF3
:102F70006D49086055480078C00703D52800C0B2E5
:102F8000FFF713FF57480068401C56490860554832
:102F9000006859498842FFF463AF514851490860BD
:102FA0005EE761480068002803D05F48006800F0D1
:102FB0005BFD31BD70B5012400264C48F6B2805D42
:102FC0005A49F6B2895D884201D000200400761C7F
:102FD000E4B2002C02D0F6B2042EEEDBE4B2002CF8
:102FE0002ED0002004004148F6B28057303805004A
:102FF000761C6DB2002D23D46DB20A2D20DA0A2082
:1030000000FB05F04A4908703848F6B2805730385E
:103010000500761C6DB2002D12D46DB20A2D0FDAA8
:103020004348007828184249087041480078082829
:1030300006DA2E48F6B2805D0D2801D10120040089
:10304000E4B2002C04D00FF21D001D49086005E019
:103050003848FFF7E1FC38481949086023482449FB
:10306000086070BD80B5344815490860244830496F
:10307000097800EBC1004068804701BD80B5134866
:10308000006850F00040114908602C48FFF7C4FC6C
:103090000A480078FFF7E0FCFFF7D0FC00201E494B
:1030A000088012481249086023480549086001BD9C
:1030B000C01800201A29080000CA9A3BA61900204F
:1030C000BC180020A519002008150020B818002001
:1030D000F066080048620800F8610800F018002057
:1030E00088150020CC180020C818002008160020E1
:1030F000D018002058020020081600200C66080096
:1031000018020020406708004C6708008404002073
:103110007C040020EC640800981900209C02002028
:1031200048160020A0020020C4180020C002002081
:10313000A7190020C80200205D2E0800DC02002034
:10314000012210F01F018A40DFF8A41840B20300EA
:103150005B0941F823207047012210F01F018A40CB
:10316000DFF8901840B203005B0941F82320704754
:103170002DE9F04704002078022804D027D3042842
:1031800019D00CD323E0DFF870585026DFF86C78A4
:103190005FF008087FF008095FF01A0A19E0DFF80D
:1031A00060585026DFF85C785FF000085FF0FF3968
:1031B0005FF0300A0DE0DFF850585026DFF84C7809
:1031C0005FF400287FF400295FF0000A01E000208E
:1031D00063E02869C00201D500205EE0DFF8300816
:1031E0000168012295F9280082401143DFF8200888
:1031F000016060686860A068A860207B2873607BBD
:103200006873206968616069A861A069E861E06924
:103210002862208CA884286950F4801028612868CE
:103220000660286847602868C0F808802868C0F8E9
:103230000C902868C0F820A0687B02281BD1A069E8
:103240002968C1F80001A069401C2968C1F8100173
:1032500001202968C1F8040101202968C1F814017E
:103260000020286240F201102968C1F820015FF4B3
:10327000002029688860687B032803D1DFF8940761
:103280002968886095F9280040B2FFF765FF95F935
:10329000280040B2FFF754FF2800BDE8F087F8B5DA
:1032A00005000E0017003A00310015F12C0000F067
:1032B000F7FB0400002C01D1002007E0DFF85C07D9
:1032C0000068002801D500F07EF82000F2BD80B52E
:1032D000DFF84C07DFF8201708600020DFF8181728
:1032E00048600020DFF81017C8620020DFF80817D8
:1032F000C8610020DFF8001788840020DFF8F81686
:1033000008620020DFF8F01608610D20DFF8E816EB
:1033100081F82800DFF80C07DFF8E41608600020C9
:10332000DFF8DC1648600020DFF8D416C862002001
:10333000DFF8CC16C8610020DFF8C41688840020AE
:10334000DFF8BC1608620020DFF8B41608610E2012
:10335000DFF8AC1681F82800DFF8CC06DFF8A816F5
:1033600008600020DFF8A01648600020DFF89816FB
:10337000C8620020DFF89016C8610020DFF88816C8
:1033800088840020DFF8801608620020DFF87816B5
:1033900008610F20DFF8701681F82800DFF8580662
:1033A000DFF8881608600FF25940DFF86C160860E5
:1033B000DFF87C06FFF730FB01BD80B5DFF858066B
:1033C0000068804701BD80B5DFF86806006850F0EE
:1033D0000100DFF860160860DFF81C06DFF84C1605
:1033E0000860DFF850060078C0070FD5DFF8280620
:1033F00000688047DFF840060068DFF84016086084
:103400000121DFF83806FFF789FAEAE701BD80B548
:10341000DFF8EC05DFF828160860DFF82C06DFF887
:1034200024160860DFF824060068401CDFF81C162C
:10343000086000F016F801BD80B5DFF8CC05DFF8B4
:1034400000160860DFF80806DFF8F8150860DFF8F6
:1034500004060068401CDFF8FC15086000F001F865
:1034600001BD70B5DFF8D805006800684669DFF86F
:10347000D005006800680069000338D5300336D5F0
:10348000DFF8BC0500684068C06BDFF8B415096858
:103490008968084214D1DFF8AC050068006850F074
:1034A0000100DFF8A01509680860DFF898050068DA
:1034B000006830F00600DFF88C150968086016E037
:1034C000DFF880050068006840084000DFF87415E8
:1034D00009680860DFF868050068407B022806D1AB
:1034E0000120DFF85C1509680968C1F80401DFF8FC
:1034F0005005006800680069800570D5B0056ED57C
:10350000DFF83C050068006B401EDFF834150968E1
:103510000863DFF82C050068006880690400DFF8A4
:1035200020050068006B002825D0DFF8140500682E
:10353000406B401CDFF8081509684863DFF8000598
:103540000068406B00780400DFF8F4040068007B3A
:10355000012803D194FAA4F0000E04002000C0B2A8
:10356000DFF8DC1409680968C861DFF8D404006872
:103570004069804733E04FF40070DFF8C4140968F5
:103580000968C860DFF8B8040068006930F400100A
:10359000DFF8AC14096808610421DFF8A4040068AE
:1035A000C06A006800F063FBDFF8940400682C3008
:1035B00000F0F3FA0120DFF88814096809688860D0
:1035C000DFF880040068006850F00200DFF874142F
:1035D00009680860DFF86804006840698047DFF820
:1035E0006004006800680069C00738D5DFF850043F
:1035F000006800684069C00731D5DFF844040068FE
:103600000068806900F0FF000400DFF834040068FF
:10361000007B012803D194FAA4F0000E04002000DE
:10362000C0B2FF2806D1DFF830040068401CDFF884
:1036300028140860DFF808040068006A0068047055
:10364000DFF800040068006850F00400DFF8F413AD
:1036500009680860DFF8E803006880698047DFF8E0
:10366000E003006800680069000740F182803007CD
:1036700040F17F80DFF8C8030068407B002805D058
:10368000DFF8BC030068407B01283DD10020DFF853
:10369000B0130968C884DFF8A8030068006930F433
:1036A0008000DFF89C1309680861DFF89403006864
:1036B000006950F40000DFF8881309680861DFF83A
:1036C0009C030068401CDFF894130860DFF85C037B
:1036D0000068407B002808D1DFF864030068806838
:1036E000DFF85C1309684968086340F20220DFF8DC
:1036F000501309680968C1F820010820DFF8401359
:1037000009680968C86034E0DFF8380300680068B9
:1037100050F00400DFF82C1309680860DFF820037C
:1037200000680068D0F81001401CDFF81413096825
:103730000968C1F81001DFF8080300680068D0F8D4
:103740000001DFF8FC120968C969BD4A1268928C51
:103750001144884207D1BA480068C069B84909686D
:103760000968C1F800010120B54909680968C1F874
:103770001401B348006800680069C0063ED5F00631
:103780003CD50421AE480068C06A006800F06FFABA
:10379000AB4800682C3000F000FAA94800680069C6
:1037A00030F40010A649096808614FF40070A4497C
:1037B00009680968C1F820011020A1490968096851
:1037C000C860002005009E480068006840698005C8
:1037D00003D4642D01D26D1CF5E799480068407B45
:1037E00000280BD191480068407B002806D19448FE
:1037F00000688068924909684968086370BD0000E4
:10380000F8B58A480068C06A002805D18748006872
:10381000C08C002800F0C78084480068006910F45C
:10382000C00F40F0C08081480068407B002806D16E
:103830007E48006880687D490968496848637B481C
:103840000068C08C002840D078480068006950F4B7
:10385000800076490968086174480068858C0026F4
:1038600072480068C76932002900380000F09AFEEB
:103870006E480068C0696D4909680968C1F80001AF
:103880006A480068C069694909680968C1F808019F
:1038900066480068C08C654909680968C1F8040178
:1038A00062480068C08C614909680968C1F80C0168
:1038B00008205E4909680968886040F201105B4988
:1038C00009680968C1F820016DE0022157480068C5
:1038D000C06A006800F0CBF954480068006950F4F1
:1038E000001052490968086150480068407B03286D
:1038F0003BD14E480068C06A40684C49096808637B
:103900004A480068C06A083048490968486347481F
:103910000068406B0078040044480068007B012880
:1039200003D194FAA4F0000E040008203F4909686E
:103930000968086040203D4909680968086020005E
:10394000C0B23A4909680968C86101203749096865
:103950000968C8604FF400703449096809688860D4
:1039600032480068406980471DE030480068C06AFE
:1039700008302E4909680968C1F808012B48006819
:10398000C06A4068294909680968C1F80C0110201B
:1039900026490968096888604FF4807023490968DE
:1039A0000968C1F820012148006890F828000D2816
:1039B00004D015D30F2809D004D311E010481B49B7
:1039C000086013E01048194908600FE00A481749D9
:1039D000086018480068400840001649086005E083
:1039E0001F48FFF719F8044810490860F1BD0000AE
:1039F00000E100E080E200E048160020C00840003E
:103A000080160020CE184500B8160020FF1841008F
:103A100010040E400100080024190020EC180020BA
:103A20000000094000400940008009403019002092
:103A3000F80300202C190020D41800202819002099
:103A400034190020381900201C1900203C190020CE
:103A50002019002040190020441900204819002096
:103A600010040020FDF719BB0100FF209B4A1368DA
:103A70008B4204D09A4B9A4201D00C32F7E7984B14
:103A80009A420BD013791800C0B2042802D0C0B2F9
:103A9000052803D10023136000231371C0B27047BF
:103AA0002DE9F84F05000E00934634005FF0000941
:103AB0008C480078102807D18B48006850F001002E
:103AC00089490860002066E0002C63D085480078B2
:103AD000401C84490870834800780E2806DB824821
:103AE000006850F002008049086005E07E480068E8
:103AF00030F002007C4908607C4882469AF8000059
:103B0000002802D11AF1900AF8E700208AF8000094
:103B10001AF104000700812C03D380208146803CE9
:103B200002E0A14600200400714800683860C7F830
:103B300004900020C7F8880000207968884208D2E5
:103B40009BF8001007EB000211721BF1010B401CE7
:103B5000F3E72868002801D12F600AE02868804632
:103B6000D8F88800002802D0D8F88880F8E7C8F88C
:103B700088705F48006800F088F85D480068401C65
:103B80005B4908605A48006800289DD101205849C7
:103B9000086099E73868BDE8F28F0168002906D10E
:103BA0005149096851F004014F4A11601EE04F4924
:103BB0000A1D03689A4204D04E4A914201D09031C6
:103BC000F6E74C4A914206D1474A126852F0080281
:103BD000454B1A600AE00268D2F888200260012290
:103BE0000A70404A1278521E3E4B1A7070470020ED
:103BF0003C49087001203E490860002080B210282E
:103C000008DA0121394A80B2902303FB00F3D15432
:103C1000401CF3E7002080B2402818DA00212F4A28
:103C200080B20C2303FB00F3D15000212B4A80B259
:103C30000C2303FB00F31A4411710021274A80B2C0
:103C40000C2303FB00F31A449160401CE3E7234874
:103C5000294908600020244908600FF265002749BF
:103C60000860704780B525480068804701BD1B4A41
:103C70001368834204D01A4B9A4201D00C32F7E702
:103C8000174B9A4200D0117170471B4909680860B0
:103C90000121194A1268117119490968164A1268F6
:103CA0009160154909680C31134A1160124909687D
:103CB0000B4A914202D109490F4A11607047000036
:103CC00010480068401E0F4908600E480068002830
:103CD00003D14FF47A700B4908607047900D0020B3
:103CE00090100020A8190020F41800209004002053
:103CF000FC180020900D002000190020F81800206A
:103D0000D4180020F4030020012210F01F018A4083
:103D1000DFF8E41440B203005B0941F82320704748
:103D2000012210F01F018A40DFF8D01440B20300D6
:103D30005B0941F8232070472DE9F0470400207803
:103D4000012806D035D303281BD00ED3042824D055
:103D50002FE0DFF8AC545026DFF8A8745FF00008BD
:103D60005FF0FF395FF01A0A25E0DFF89C54502617
:103D7000DFF890745FF008087FF008095FF01A0A16
:103D800019E0DFF888545026DFF884745FF00008EB
:103D90005FF0FF395FF0300A0DE0DFF8785450260D
:103DA000DFF874745FF400287FF400295FF0000AE4
:103DB00001E0002049E02879C00701D5002044E057
:103DC000DFF858040168012295F92200824011436E
:103DD000DFF8480401606068686160882884A06832
:103DE000A861E068E861686850F0010068602868D0
:103DF0000660286847602868C0F808802868C0F80E
:103E00000C902868C0F820A060682968C1F80001FB
:103E10006068401C2968C1F8100101202968C1F8B8
:103E2000040101202968C1F8140140F20110296839
:103E3000C1F8200195F9220040B2FFF771FF95F912
:103E4000220040B2FFF760FF2800BDE8F0877CB594
:103E500005000E008DF800606A46012115F108008A
:103E6000FFF71EFE0400002C06D0DFF8B803006840
:103E7000002801D500F0A0F8200076BDF8B50500B7
:103E80000E0017003A00310015F10800FFF708FE98
:103E90000400002C06D0DFF88C030068002801D550
:103EA00000F08AF82000F2BD0020DFF87C130860E3
:103EB000DFF87803DFF8481308600020DFF84013CC
:103EC00088600020DFF8381348610020DFF83013E5
:103ED00008840020DFF8281388610020DFF8201311
:103EE00048600820DFF8181381F82200DFF840034B
:103EF000DFF8141308600020DFF80C13886000203E
:103F0000DFF8041348610020DFF8FC120884002069
:103F1000DFF8F41288610020DFF8EC1248600D2011
:103F2000DFF8E41281F82200DFF80803DFF8DC1282
:103F300008600020DFF8D41288600020DFF8CC127F
:103F400048610020DFF8C41208840020DFF8BC12AA
:103F500088610020DFF8B41248600E20DFF8AC1250
:103F600081F82200DFF8D002DFF8A81208600020F4
:103F7000DFF8A01288600020DFF898124861002066
:103F8000DFF8901208840020DFF888128861002092
:103F9000A04948600F209F4981F822009848DFF827
:103FA0009C1208600FF279109D490860704780B537
:103FB0009B480068804701BD80B59B48006850F071
:103FC0000100994908608E489C490860964800782D
:103FD000C0070BD592480068804799480068994906
:103FE000086001219748FEF799FCEFE701BD80B515
:103FF0008348954908609548954908609548006848
:10400000401C9449086000F010F801BD80B57E485E
:104010008D49086090488E49086090480068401CAF
:104020008E49086000F001F801BD80B5864800683F
:1040300000680069000738D5834800680068406957
:10404000000732D582480068006850F002008049BD
:10405000096808607C4800680068D0F81001401CBE
:10406000794909680968C1F8100177480068006853
:10407000D0F81001744909684969734A1268128CB2
:104080001144884207D17048006840696E49096848
:104090000968C1F810016C480068C06980470120B8
:1040A000694909680968C1F814016748006800682F
:1040B0000069C00632D56448006800684069C006DF
:1040C0002CD504216048006880680068FFF7CFFDA8
:1040D0005D4800680830FFF760FD5B480068406895
:1040E00030F400105849096848604FF40070564990
:1040F00009680968C1F82001102053490968096856
:10410000C86057480078002805D055480078401E00
:104110005349087002E05348FEF77EFC01BD0000E1
:1041200080B5464800688068002836D0434800685B
:104130004068800231D402214048006880680068ED
:10414000FFF795FD3D480068406850F400103B497A
:10415000096848603948006880680830374909684C
:104160000968C1F80801354800688068406833492B
:1041700009680968C1F80C0110203049096809680C
:10418000886037480078401C354908704FF48070CB
:104190002A4909680968C1F820012848006890F890
:1041A0002200082806D00D2808D00E280AD00F2893
:1041B0000CD01DE01448214908601CE013481F4939
:1041C000086018E013481D49086014E00C481B49BA
:1041D000086014480068002809D5214800780028A4
:1041E00005D111480068400840000F49086002E00E
:1041F00003481249086001BD00E100E080E200E0F0
:1042000014170020C0084000381700205C17002059
:10421000CE18450080170020FF18410010040E4002
:1042200054190020EC1800205C19002000060E40F4
:10423000000009400040094000800940601900204A
:10424000D418002058190020641900204C190020AF
:10425000681900206C1900205019002070190020E6
:10426000AC1900207065080010B4DFF81813C0B254
:104270000A2202FB00F21144C97901290CD1DFF8AE
:104280000813DFF80023C0B20A2303FB00F31A442B
:10429000127A01EB82010BE0DFF8F012DFF8E42282
:1042A000C0B20A2303FB00F31A44127A01EB820125
:1042B000DFF8DC22C0B252F820200A600022B14BA5
:1042C000C0B20A2404FB00F41A5510BC704710B4A5
:1042D000AC49C0B20A2202FB00F21144C97901299B
:1042E0000AD1AA49A74AC0B20A2303FB00F31A4421
:1042F000127A01EB820109E0A349A24AC0B20A2363
:1043000003FB00F31A44127A01EB8201A04AC0B207
:1043100052F820200A6000229A4BC0B20A2404FB03
:1043200000F41A5510BC70479A49964AC0B20A2345
:1043300003FB00F31A44127A01EB820213689449DA
:10434000C0B251F820104B40136070472DE9FC417A
:104350004FF47A664FF4FA77F01B1421B0FBF1F8B2
:104360001425EDB2002D2ED01424A4B2002C0CD0B4
:1043700089480068009001216846FEF7CFFA0028BE
:10438000F9D000F03CF8641EEFE7EDB2142D05D132
:10439000C8216846FEF7C2FA0028F9D00020C0B252
:1043A0000B280ADAEDB2691E764AC0B20A2303FB73
:1043B00000F31A445180401CF1E7B6EB080618EBF5
:1043C00007076D1ECDE700F01AF8C8216846FEF712
:1043D000A5FA0028F9D00820FFF746FF0920FFF7CB
:1043E00043FF0A20FFF740FF6C48006850F00100CF
:1043F0006A4908606A48FEF70FFBBDE8F38110B513
:104400000024E4B20B2C80F2BC805E48E4B20A21A6
:1044100001FB04F1405C012840F07F805948E4B280
:104420000A2101FB04F10844B0F90200002804D17C
:104430002000C0B2FFF74BFF67E05248E4B20A2108
:1044400001FB04F10844B0F90200142804D1200053
:10445000C0B2FFF709FF58E04A48E4B20A2101FB65
:1044600004F108448088401E4649E4B20A2202FB57
:1044700004F2114488804348E4B20A2101FB04F1AC
:1044800008448088002840D13E48E4B20A2101FB5C
:1044900004F10844807901281DD12000C0B2FFF743
:1044A00016FF3848E4B20A2101FB04F10844B0F9D0
:1044B0000200D0F114003349E4B20A2202FB04F2F4
:1044C0001144888000202F49E4B20A2202FB04F242
:1044D0001144887119E02000C0B2FFF7C5FE2948D9
:1044E000E4B20A2101FB04F1084440882549E4B202
:1044F0000A2202FB04F21144888001202149E4B21F
:104500000A2202FB04F21144887101201D49E4B221
:104510000A2202FB04F2885431E01A48E4B20A216C
:1045200001FB04F1405C022829D11648E4B20A21BB
:1045300001FB04F108448088401E1249E4B20A22BB
:1045400002FB04F2114488800E48E4B20A2101FB08
:1045500004F108448088002811D12000C0B2FFF780
:10456000E3FE0848E4B20A2101FB04F10844408854
:104570000449E4B20A2202FB04F211448880641C5C
:104580003FE710BD6C030020300C0E40340C0E4091
:1045900040030020380C0E40D4180020F0180020F2
:1045A000DC03002062F30F2262F31F42401810F078
:1045B000030308D0C91A1FD3DB0748BF00F8012D39
:1045C00028BF20F8022D130030B4144615461039C8
:1045D00028BF20E93C00FAD8490728BF20E90C0091
:1045E00048BF40F8042D890028BF20F8022D48BF9D
:1045F00000F8012D30BC7047C91818BF00F8012D14
:10460000CB0728BF00F8012D7047FEE7012210F00C
:104610001F018A40DFF8981740B203005B0941F898
:1046200023207047012210F01F018A40DFF8841711
:1046300040B203005B0941F823207047F8B505003C
:104640000E0017008DF80060DFF86C070078102866
:1046500001D100205CE06A460121DFF860070068B4
:10466000001DFFF71DFA0400002C50D00020DFF8D9
:104670005017DFF850271278120188540120DFF814
:104680004017DFF840271278120111444860DFF824
:104690003007DFF830170978090108440572DFF8A0
:1046A0002007DFF8201709780901084487720020E5
:1046B000DFF80C17DFF80C2712781201114448724A
:1046C0000020DFF8FC16DFF8FC26127812011144F6
:1046D000C860DFF8F0060078401CDFF8E8160870C4
:1046E000DFF8D4060078401CDFF8CC160870DFF83D
:1046F000D4060078102803D10020DFF8C81608700F
:10470000DFF8C4060068002801D500F041F9200058
:10471000F2BD2DE9F04105000E0017009846DFF8C4
:1047200098060078102801D100205DE03A003100A1
:10473000DFF888060068001DFFF7B2F90400002CBE
:1047400051D00020DFF87816DFF8782612781201B1
:1047500088540120DFF86816DFF868261278120105
:1047600011444860DFF85806DFF858160978090147
:1047700008440572DFF84806DFF848160978090191
:10478000084480F80A800020DFF83416DFF8342669
:1047900012781201114448720020DFF82416DFF865
:1047A0002426127812011144C860DFF81806007838
:1047B000401CDFF810160870DFF8FC050078401C7C
:1047C000DFF8F4150870DFF8FC050078102803D135
:1047D0000020DFF8F0150870DFF8EC05006800280D
:1047E00001D500F0D5F82000BDE8F08110B5122405
:1047F000DFF8D80500680121A1400843DFF8CC1597
:1048000008600020DFF8C8150860DFF8C805DFF889
:10481000AC1508600020DFF8AC1508700020DFF848
:10482000B81508700020DFF890150870DFF8AC05A7
:10483000DFF8A01508600020DFF898154860002018
:10484000DFF8901588600020DFF88815C860DFF871
:104850006C0500680068006850F08000DFF85C15A7
:10486000096809680860DFF878050068DFF87415E2
:1048700008600521DFF86C05FEF750F80028F8D035
:10488000DFF86405DFF83415096809680861242039
:10489000DFF828150968096808600020DFF81C1592
:1048A0000968096848604FF4A170DFF810150968BD
:1048B000096848624FF63560DFF800150968096835
:1048C0008862200040B2FFF7ADFE200040B2FFF743
:1048D0009DFE0020DFF8141508600020DFF8101599
:1048E00008600FF2A110DFF80C15086010BD80B54C
:1048F000DFF800050068804701BD0120C0B2002834
:104900001DD0DFF8E8140968002918D0DFF8E0149A
:1049100009680978DFF8A424126812685163DFF887
:10492000D0140968491CDFF8C8241160DFF8BC14F2
:104930000968491EDFF8B4241160401EDEE7DFF885
:10494000AC14096800291CD10421DFF87024126816
:1049500012689162DFF86814DFF87C241278120183
:104960001144897A002912D1DFF8501409680968C6
:10497000096851F00201DFF84424126812681160DE
:1049800005E00421DFF83424126812685162704790
:1049900080B5DFF83C04006850F00100DFF8301407
:1049A0000860DFF83C040068DFF838140860DFF8BE
:1049B00020040078C00709D5DFF838040068804774
:1049C0000121DFF82004FDF7A9FFF0E701BD10B5D4
:1049D000DFF824040468DFF8240400680440E005DC
:1049E00008D5DFF8EC03006850F08070DFF8E013C2
:1049F000086046E0A00731D5DFF8C0030068007BFF
:104A000000072BD5DFF8B40300680068006BDFF8FF
:104A1000AC13096889680870DFF8A0030068806833
:104A2000401CDFF8981309688860DFF8C00300684D
:104A3000401EDFF8B8130860DFF8B00300680128F3
:104A40001FD1DFF8780300680068006850F00200AA
:104A5000DFF8681309680968086012E0600708D584
:104A6000DFF858030068007B800702D5FFF745FF99
:104A700007E0DFF85C03006850F00070DFF85013C7
:104A8000086010BD80B5DFF83C030078DFF84813FC
:104A90000978884200F09B800020DFF82013096825
:104AA000096848602420DFF8141309680968086061
:104AB000DFF80C03DFF8201309780901405C0028B7
:104AC00037D1DFF8F802006800684068DFF8F012BC
:104AD000DFF80423127812011144097A50EA0140E8
:104AE000DFF8D812096809684860B448006840686F
:104AF0004068DFF8F8120860B04800684068083085
:104B0000DFF8EC120860FFF7F8FE0221AB480068FE
:104B100040680068FFF7ABF8A8480068C06850F02C
:104B20000600A6490968C8600FF2A500B1490860EF
:104B300044E0A348A84909780901405C01283DD117
:104B40009E480068006840689C4909680968486098
:104B50009B48A1490978090108444068A3490860B5
:104B600097489D49097809010844C0689349096834
:104B700088609E48006801280AD190480068006853
:104B8000006850F003008D4909680968086009E071
:104B90008A4800680068006850F001008749096889
:104BA0000968086085480068C06850F008008349BB
:104BB0000968C8600FF2ED008E49086084480068FB
:104BC00010F07F4F03D00FF255108A49086001BDE5
:104BD00080B57B488049097809010844807A00281B
:104BE00018D182480068002826D1744800680068FF
:104BF000006A400720D5714800680068006AC00755
:104C00001AD56E480068C06830F006006B49096824
:104C1000C86011E07548006800280DD16748006839
:104C20000068006A400707D564480068C06830F033
:104C3000020062490968C86060480068007B80071C
:104C400025D404215D48006840680068FFF70FF82C
:104C50005A480068001DFEF7A0FF5D480068400844
:104C600040005B4908606648624908605A4800781D
:104C7000401C5949087050480078401E4E49087041
:104C800055480078102802D1002053490870504838
:104C9000006810F07F4F03D00FF281005549086083
:104CA00001BD00005148006800282DD1434800682C
:104CB0000068006A800727D5404800680068006ADD
:104CC000C00721D53D480068C06830F008003B4966
:104CD0000968C8603E480068400840003C490860D8
:104CE0004748444908603C480078401C3A490870ED
:104CF00031480078401E3049087037480078102845
:104D000002D10020344908703148006810F07F4F0C
:104D100003D00FF2090037490860704780B52C486E
:104D20000068C0013AD52648264909780901084497
:104D3000407A401C2249234A1278120111444872D9
:104D40001F482049097809010844407A032821D1E5
:104D500021480078401C2049087017480078401E00
:104D6000154908701C480078102802D100201A4903
:104D7000087012480068007B80070BD506210F4899
:104D8000006840680068FEF772FF0C480068001D6C
:104D9000FEF703FF002009490968C8600C48006855
:104DA00020F07F400A49086015481249086001BD9B
:104DB00000E100E080E200E0AB19002010190020C3
:104DC00068130020A9190020EC18002010040E40E0
:104DD0000C19002010180020AA19002000400840DB
:104DE000D4180020081900201D1D020014190020ED
:104DF00018190020041900202C40084020400840C9
:104E0000854A080010B50400207800F021F9002838
:104E100005D0DFF83004FDF7FFFD0020F3E0DFF8F8
:104E20002804FDF7F0F8DFF820140871A078DFF807
:104E30001C1488700021C9B2082918DAC9B204EB21
:104E40000100C078DFF80424C9B20A44D070DFF84A
:104E5000002423781420434302EB0300C9B2084422
:104E6000C9B204EB0102D278C270491CE3E7DFF853
:104E7000DC03FDF7C8F8DFF8D413C8722078DFF838
:104E8000D41388706078DFF8CC13C8706178DFF8CD
:104E9000C02323781420434302EB03004170A07821
:104EA000DFF8B0130871A178DFF8A4232378142069
:104EB000434302EB03008170DFF89803FDF7A3F88A
:104EC000DFF8901348712078DFF88C138870E07A4F
:104ED000DFF88413C870E17ADFF874232378142094
:104EE000434302EB0300C172207BDFF86C130871AF
:104EF000217BDFF85C2323781420434302EB03007B
:104F00000173607BDFF850134871617BDFF8402349
:104F100023781420434302EB03004173A07BDFF8A6
:104F200038138871A17BDFF82823237814204343AA
:104F300002EB03008173DFF82003FDF764F8DFF86C
:104F40001813C8712078DFF814138870E07BDFF83D
:104F50000C13C870E17BDFF8F82223781420434358
:104F600002EB0300C173207CDFF8F0120871217C92
:104F7000DFF8DC2223781420434302EB03000174A2
:104F8000DFF8D802FDF73FF8DFF8D012487120783B
:104F9000DFF8CC128870607CDFF8C412C870617CC6
:104FA000DFF8AC2223781420434302EB0300417462
:104FB000DFF8AC02FDF727F8DFF8A41208712078BB
:104FC000DFF8A0128870A07CDFF89812C870A17C6E
:104FD000DFF87C2223781420434302EB0300817422
:104FE000DFF88002FDF70FF8DFF878120871DFF8BC
:104FF00078020068DFF8741208600FF27510DFF8AD
:1050000070120860012010BD1CB504006846994963
:105010000A680260E4B2002C01D08DF802406846B4
:10502000FCF7F1FF8DF803008948E4B2142101FB7D
:1050300004F10844C07C50F002008549E4B2142217
:1050400002FB04F21144C8746846FCF7F0FF16BD79
:1050500001007F48C9B2142202FB01F21044C07C57
:10506000C00717D57A48C9B2142202FB01F21044D6
:10507000C07C000701D504200DE07548C9B2142298
:1050800002FB01F21044C07C400701D5032002E07E
:10509000012000E00020704738B504000D0076487C
:1050A00084700020C0B2082807DAC0B2295C724AB6
:1050B000C0B20244D170401CF4E76F48FCF7A3FF74
:1050C0006D49C8726C48FCF7B2FF32BD10B56B4831
:1050D0000068002839D0694800680068684908609D
:1050E0006648006800796749087064480068841D54
:1050F0000020C0B2082806DAC0B2215C624AC0B201
:105100001154401CF5E75D480068807B5F490870DA
:105110005A480068C07B5D49487058480068008A5A
:105120005A49488055480068807C5849087153485E
:105130000068C07C5549487150480068007D53495B
:105140008871FCF7D8FF012000E0002010BD80B579
:105150004F48FDF761FC0FF215004549086001BD9D
:1051600080B543480068804701BD000070470000DB
:1051700080B548480078002811D147484749097848
:1051800050F821004078464908704348434909785F
:1051900050F82100FCF74BFF01203E4908704048C1
:1051A00000784049497888423BD13E4880780028C1
:1051B0002BD13A480078401C3849087037480078AD
:1051C00007282BD137480078374908733648FDF750
:1051D00023FC3648FDF720FC1D4932480278142094
:1051E000424301EB0200C17C51F00101184A2D48F5
:1051F00003781420434302EB0300C17400202749C5
:1052000008702B481A49086008E02748FDF704FC9D
:105210002848FDF701FC26481549086000201D4973
:10522000087042F210711148FDF778FB002808D091
:105230001D48FDF7F1FB1F48FDF7EEFB1C480C492C
:10524000086001BDD0620800440100201001002068
:10525000681400201C010020240100202C010020E3
:10526000340100203C010020D4180020A0180020A8
:105270009C180020786708004C0100204818002086
:1052800098180020A11900202C18002034180020A4
:1052900014670800A4190020E0010020A2190020D2
:1052A000A31900204418002014000020040000204E
:1052B0006D5108000C000020DFF87802DFF878124A
:1052C00008600420DFF8741208604FF48070DFF883
:1052D00070120860DFF86C02DFF86C120860DFF80B
:1052E0006C020068C007FAD597480168DFF86002D1
:1052F00001439548016097489749086093480068C2
:105300008007FBD54FF400709449086042F2110009
:10531000934908608D4800680007FBD542F21200EF
:105320008F490860894800680007FBD58D480068F0
:1053300050F444108B490860844800684006FBD54F
:10534000704700208849086000208849086041F2C1
:105350006F708749086000208649086003208649ED
:105360000860704780B58048016884480068091A61
:10537000012917D082480068401C81490860814893
:10538000006850F020007F4908607F48007880075F
:1053900008D57E48FDF740FB79480068FDF75CFBC7
:1053A000FDF74CFB70480068744908607848006855
:1053B00030F48010764908607648006830F00400C8
:1053C000744908606F48006850F080406D4908607B
:1053D0006C480068400001D530BFF9E701BD6E4858
:1053E0006E4908606E486F490860704780B56E4826
:1053F0006E4908606E486F4908606F486F490860E1
:105400006F487049086000206F49086000206F49AC
:1054100008606F486F4908605FF040506E4908604F
:105420006E486F4908606F486F4908607FF001005F
:105430006E49086001206E4908605FF0F6406D49D2
:10544000086000206C49086000206C49086000205A
:105450006B4908606B486C49086000206B49086024
:105460006B486C4908606C486C4908606C486D4931
:1054700008606D486D49086000206D490860002093
:105480006C4908606C486D49086000206C490860F0
:1054900000206C4908607FF07E406B4908606B48D3
:1054A0006B4908604FF4E0706A4908606A486B49CC
:1054B000086000206A49086000206A4908600020EE
:1054C0006949086069486A490860002069490860BC
:1054D00000F001F801BD5FF001106749086000208D
:1054E0006649086003206649086041F270706549AA
:1054F000086041F270706449086042F6E0606349F8
:10550000086042F6E0606249086003206149086073
:1055100040F2DC506049086040F2DC505F490860AE
:1055200040F6B8305E49086040F6B8305D49086022
:105530007047000073EDFC2710040E4040040E403D
:1055400000040E4019F0370020040E4068040E409D
:1055500000003701013F072028040E4000080E40DC
:1055600030040E401C040E40D4180020D81800202F
:1055700014E000E018E000E010E000E0E018002097
:10558000DC180020EC180020B8180020F4020020DD
:1055900070040E4010ED00E00005FF1F54120E4095
:1055A000010000A550120E4007000384000C0E40BD
:1055B000F8FFFC7B040C0E40F9D755BF100C0E40D1
:1055C0000628AA40140C0E40200C0E40240C0E405D
:1055D00000000188300C0E40340C0E400006000420
:1055E000500C0E40FFF9FFFB540C0E40600C0E40B7
:1055F000640C0E40700C0E40800C0E40840C0E406B
:105600008C0C0E40000001B4A00C0E40A40C0E4007
:1056100057FFBF01000E0E4058004000040E0E4020
:10562000E0FFBF01100E0E401F004000140E0E40A0
:10563000200E0E40240E0E4000FEBF01300E0E4024
:10564000340E0E40500E0E40540E0E405FFEFF0111
:10565000600E0E40640E0E4018004000700E0E40AA
:10566000800E0E40840E0E408C0E0E40E0FF1F0098
:10567000A00E0E40A40E0E4000C0084020C00840FE
:1056800000C208400CC2084010C2084004C20840D2
:1056900008C2084020C208402CC2084030C208405E
:1056A00024C2084028C20840012210F01F018A408D
:1056B000884940B203005B0941F82320704701226A
:1056C00010F01F018A40844940B203005B0941F891
:1056D00023207047F8B5002400250020C0B204281C
:1056E0000DDA0021804AC0B2115400217B4AC0B2B9
:1056F000115400217D4AC0B21154401CEEE7002134
:10570000C9B204291ADA7A48C9B200EB41004078DC
:10571000002805D17748C9B250F8210004430BE0B6
:105720007348C9B200EB41004078802804D1714829
:10573000C9B250F821000543491CE1E76E480460F6
:105740006E4805606E4806686E4807680A20FFF7D5
:10575000B6FF0B20FFF7B3FF0A20FFF7A5FF0B20D2
:10576000FFF7A2FF0FF24D00674908606748006825
:1057700050F00200654908606548FDF74DF9F1BD3C
:1057800080B561480068804701BD0200D2B2042A9A
:105790000DDA5748D2B200EB420040780B00DBB282
:1057A000984204D15348D2B250F8220000E00020C1
:1057B000704700000021C9B204290ADA4A48C9B278
:1057C000405C002803D00FF20D004F4A1060491CC6
:1057D000F1E7704770B54F484B4908600026F6B2B4
:1057E000042E75DA4C484249F6B201EB460149787D
:1057F00000EB8100040040483D49F6B201EB460150
:10580000497800EB810005003748F6B2805D00283A
:105810005CD042483C49086019214148F6B200EB8F
:105820008600FDF77BF8002850D03148F6B210F81A
:105830001600002812D120682E49F6B251F8261021
:1058400031EA0000002804D001202849F6B288552A
:1058500014E000202549F6B288550FE0206825495C
:10586000F6B251F82610084204D001201F49F6B2C2
:10587000885503E000201D49F6B288551B48F6B252
:10588000805D1649F6B2895D884214D01748F6B299
:10589000805D1249F6B288551048F6B2805D012845
:1058A00009D101200E49F6B288551E4800680D49FD
:1058B000F6B241F8260000200B49F6B28855296857
:1058C0000C48F6B250F8260001432960761C86E7A2
:1058D00070BD000000E100E080E200E0AC180020B4
:1058E000B418002000180020A4180020B0180020D0
:1058F000FC01002024670800400C0E40400E0E40C2
:105900004C0C0E404C0E0E40A8180020F018002041
:1059100004020020B55708003C0C0E40D557080083
:10592000F0170020D4180020E0B5684670490B221B
:10593000FDF736F8012000F0F3F8002042F2107174
:10594000884201D2401CF9E76946002000F0FDF8CA
:105950000020684908701020664948700020654999
:10596000C87320206349087435206249C872122028
:105970006049087301205F49487301205D498873BD
:1059800032205C49487404205A49887400205949DF
:1059900088700020C0B2082806DA0021554AC0B23B
:1059A0000244D170401CF5E75248FFF72BFA00285B
:1059B00008D051480068514908600FF2250050494D
:1059C000086006E04F48FDF727F80FF251104C49E8
:1059D000086007BD80B54A480068804701BD0000E7
:1059E00080B50020FFF734FB012806D10020FFF727
:1059F0000BFB0FF225004249086040F6B8313F48E2
:105A0000FCF78CFF002806D03E48FDF705F80FF2A2
:105A10000D103B49086001BD10B5FFF757FB00288A
:105A200065D039480078012827D10024E4B2082C39
:105A30001EDA3648E4B2005D102190FBF1F0C0B2EE
:105A4000FCF784FF3249E4B201F814002F48E4B2B5
:105A5000005D102190FBF1F201FB1200C0B2FCF7D7
:105A600075FF2B49E4B201EB44014870641CDDE78B
:105A70002749402000F069F839E0234800780228DF
:105A800035D12448C078062816D12348C078401C58
:105A90002149C8702048C07800280DD11E48807860
:105AA000401C1D4988701C488078002804D11A4881
:105AB0004078401C184948701748C079401C164966
:105AC000C8711548C07900280DD113488079401C51
:105AD0001149887110488079002804D10E48407916
